{
  "contractName": "TrueGrailToken",
  "abi": [
    {
      "constant": true,
      "inputs": [],
      "name": "totalSupply",
      "outputs": [
        {
          "name": "",
          "type": "uint256"
        }
      ],
      "payable": false,
      "stateMutability": "view",
      "type": "function",
      "signature": "0x18160ddd"
    },
    {
      "constant": true,
      "inputs": [
        {
          "name": "",
          "type": "uint256"
        }
      ],
      "name": "ownerships",
      "outputs": [
        {
          "name": "",
          "type": "address"
        }
      ],
      "payable": false,
      "stateMutability": "view",
      "type": "function",
      "signature": "0x3acefa20"
    },
    {
      "constant": true,
      "inputs": [
        {
          "name": "",
          "type": "uint256"
        }
      ],
      "name": "factories",
      "outputs": [
        {
          "name": "",
          "type": "address"
        }
      ],
      "payable": false,
      "stateMutability": "view",
      "type": "function",
      "signature": "0x672383c4"
    },
    {
      "constant": true,
      "inputs": [
        {
          "name": "",
          "type": "uint256"
        }
      ],
      "name": "tokenHashInfo",
      "outputs": [
        {
          "name": "",
          "type": "string"
        }
      ],
      "payable": false,
      "stateMutability": "view",
      "type": "function",
      "signature": "0x6c89d6f4"
    },
    {
      "inputs": [
        {
          "name": "_name",
          "type": "string"
        },
        {
          "name": "_symbol",
          "type": "string"
        }
      ],
      "payable": false,
      "stateMutability": "nonpayable",
      "type": "constructor"
    },
    {
      "anonymous": false,
      "inputs": [
        {
          "indexed": true,
          "name": "_from",
          "type": "address"
        },
        {
          "indexed": true,
          "name": "_to",
          "type": "address"
        },
        {
          "indexed": true,
          "name": "_tokenId",
          "type": "uint256"
        },
        {
          "indexed": false,
          "name": "newHash",
          "type": "string"
        }
      ],
      "name": "Transfer",
      "type": "event",
      "signature": "0xcd6e659e4c2e75c3bfe47fecaccf39aeb368116a0ee52afb532e07f6cba6c0d1"
    },
    {
      "anonymous": false,
      "inputs": [
        {
          "indexed": true,
          "name": "_owner",
          "type": "address"
        },
        {
          "indexed": true,
          "name": "_approved",
          "type": "address"
        },
        {
          "indexed": false,
          "name": "_tokenId",
          "type": "uint256"
        }
      ],
      "name": "Approval",
      "type": "event",
      "signature": "0x8c5be1e5ebec7d5bd14f71427d1e84f3dd0314c0f7b2291e5b200ac8c7c3b925"
    },
    {
      "anonymous": false,
      "inputs": [
        {
          "indexed": true,
          "name": "_issuer",
          "type": "address"
        },
        {
          "indexed": true,
          "name": "_tokenId",
          "type": "uint256"
        },
        {
          "indexed": false,
          "name": "_hashInfo",
          "type": "string"
        }
      ],
      "name": "Issue",
      "type": "event",
      "signature": "0x9a27b65b834a85153a0161940629613dcded325ecd78845ba99e2ec15d53b77b"
    },
    {
      "constant": true,
      "inputs": [],
      "name": "getCreator",
      "outputs": [
        {
          "name": "",
          "type": "address"
        }
      ],
      "payable": false,
      "stateMutability": "view",
      "type": "function",
      "signature": "0x0ee2cb10"
    },
    {
      "constant": true,
      "inputs": [],
      "name": "getFactories",
      "outputs": [
        {
          "name": "",
          "type": "address[]"
        }
      ],
      "payable": false,
      "stateMutability": "view",
      "type": "function",
      "signature": "0x7e6cbb6a"
    },
    {
      "constant": false,
      "inputs": [
        {
          "name": "_account",
          "type": "address"
        }
      ],
      "name": "addFactory",
      "outputs": [],
      "payable": false,
      "stateMutability": "nonpayable",
      "type": "function",
      "signature": "0x29ce1ec5"
    },
    {
      "constant": false,
      "inputs": [
        {
          "name": "_tokenId",
          "type": "uint256"
        },
        {
          "name": "_hashInfo",
          "type": "string"
        },
        {
          "name": "_initAddress",
          "type": "address"
        }
      ],
      "name": "issueToken",
      "outputs": [],
      "payable": false,
      "stateMutability": "nonpayable",
      "type": "function",
      "signature": "0x0f6935ea"
    },
    {
      "constant": true,
      "inputs": [
        {
          "name": "_tokenId",
          "type": "uint256"
        }
      ],
      "name": "ownerOf",
      "outputs": [
        {
          "name": "_owner",
          "type": "address"
        }
      ],
      "payable": false,
      "stateMutability": "view",
      "type": "function",
      "signature": "0x6352211e"
    },
    {
      "constant": false,
      "inputs": [
        {
          "name": "_to",
          "type": "address"
        },
        {
          "name": "_tokenId",
          "type": "uint256"
        },
        {
          "name": "newHash",
          "type": "string"
        }
      ],
      "name": "transfer",
      "outputs": [],
      "payable": false,
      "stateMutability": "nonpayable",
      "type": "function",
      "signature": "0x56b8c724"
    },
    {
      "constant": true,
      "inputs": [
        {
          "name": "_tokenId",
          "type": "uint256"
        }
      ],
      "name": "tokenMetadata",
      "outputs": [
        {
          "name": "infoHash",
          "type": "string"
        }
      ],
      "payable": false,
      "stateMutability": "view",
      "type": "function",
      "signature": "0x6914db60"
    }
  ],
  "bytecode": "0x60806040523480156200001157600080fd5b506040516200122538038062001225833981018060405260408110156200003757600080fd5b8101908080516401000000008111156200005057600080fd5b828101905060208101848111156200006757600080fd5b81518560018202830111640100000000821117156200008557600080fd5b50509291906020018051640100000000811115620000a257600080fd5b82810190506020810184811115620000b957600080fd5b8151856001820283011164010000000082111715620000d757600080fd5b505092919050505033600260006101000a81548173ffffffffffffffffffffffffffffffffffffffff021916908373ffffffffffffffffffffffffffffffffffffffff1602179055508160009080519060200190620001389291906200015a565b508060019080519060200190620001519291906200015a565b50505062000209565b828054600181600116156101000203166002900490600052602060002090601f016020900481019282601f106200019d57805160ff1916838001178555620001ce565b82800160010185558215620001ce579182015b82811115620001cd578251825591602001919060010190620001b0565b5b509050620001dd9190620001e1565b5090565b6200020691905b8082111562000202576000816000905550600101620001e8565b5090565b90565b61100c80620002196000396000f3fe6080604052600436106100af576000357c0100000000000000000000000000000000000000000000000000000000900463ffffffff1680630ee2cb10146100b45780630f6935ea1461010b57806318160ddd146101fd57806329ce1ec5146102285780633acefa201461027957806356b8c724146102f45780636352211e146103e6578063672383c4146104615780636914db60146104dc5780636c89d6f4146105905780637e6cbb6a14610644575b600080fd5b3480156100c057600080fd5b506100c96106b0565b604051808273ffffffffffffffffffffffffffffffffffffffff1673ffffffffffffffffffffffffffffffffffffffff16815260200191505060405180910390f35b34801561011757600080fd5b506101fb6004803603606081101561012e57600080fd5b81019080803590602001909291908035906020019064010000000081111561015557600080fd5b82018360208201111561016757600080fd5b8035906020019184600183028401116401000000008311171561018957600080fd5b91908080601f016020809104026020016040519081016040528093929190818152602001838380828437600081840152601f19601f820116905080830192505050505050509192919290803573ffffffffffffffffffffffffffffffffffffffff1690602001909291905050506106da565b005b34801561020957600080fd5b50610212610942565b6040518082815260200191505060405180910390f35b34801561023457600080fd5b506102776004803603602081101561024b57600080fd5b81019080803573ffffffffffffffffffffffffffffffffffffffff169060200190929190505050610948565b005b34801561028557600080fd5b506102b26004803603602081101561029c57600080fd5b8101908080359060200190929190505050610a78565b604051808273ffffffffffffffffffffffffffffffffffffffff1673ffffffffffffffffffffffffffffffffffffffff16815260200191505060405180910390f35b34801561030057600080fd5b506103e46004803603606081101561031757600080fd5b81019080803573ffffffffffffffffffffffffffffffffffffffff169060200190929190803590602001909291908035906020019064010000000081111561035e57600080fd5b82018360208201111561037057600080fd5b8035906020019184600183028401116401000000008311171561039257600080fd5b91908080601f016020809104026020016040519081016040528093929190818152602001838380828437600081840152601f19601f820116905080830192505050505050509192919290505050610aab565b005b3480156103f257600080fd5b5061041f6004803603602081101561040957600080fd5b8101908080359060200190929190505050610ccd565b604051808273ffffffffffffffffffffffffffffffffffffffff1673ffffffffffffffffffffffffffffffffffffffff16815260200191505060405180910390f35b34801561046d57600080fd5b5061049a6004803603602081101561048457600080fd5b8101908080359060200190929190505050610d0a565b604051808273ffffffffffffffffffffffffffffffffffffffff1673ffffffffffffffffffffffffffffffffffffffff16815260200191505060405180910390f35b3480156104e857600080fd5b50610515600480360360208110156104ff57600080fd5b8101908080359060200190929190505050610d48565b6040518080602001828103825283818151815260200191508051906020019080838360005b8381101561055557808201518184015260208101905061053a565b50505050905090810190601f1680156105825780820380516001836020036101000a031916815260200191505b509250505060405180910390f35b34801561059c57600080fd5b506105c9600480360360208110156105b357600080fd5b8101908080359060200190929190505050610dfd565b6040518080602001828103825283818151815260200191508051906020019080838360005b838110156106095780820151818401526020810190506105ee565b50505050905090810190601f1680156106365780820380516001836020036101000a031916815260200191505b509250505060405180910390f35b34801561065057600080fd5b50610659610ead565b6040518080602001828103825283818151815260200191508051906020019060200280838360005b8381101561069c578082015181840152602081019050610681565b505050509050019250505060405180910390f35b6000600260009054906101000a900473ffffffffffffffffffffffffffffffffffffffff16905090565b6006600080905060008090505b828054905081101561077157828181548110151561070157fe5b9060005260206000200160009054906101000a900473ffffffffffffffffffffffffffffffffffffffff1673ffffffffffffffffffffffffffffffffffffffff163373ffffffffffffffffffffffffffffffffffffffff16141561076457600191505b80806001019150506106e7565b5080151561080d576040517f08c379a000000000000000000000000000000000000000000000000000000000815260040180806020018281038252602c8152602001807f53656e646572206973206e6f7420616c6c6f77656420746f20646f207468697381526020017f207472616e73616374696f6e000000000000000000000000000000000000000081525060400191505060405180910390fd5b83600560008781526020019081526020016000209080519060200190610834929190610f3b565b50826004600087815260200190815260200160002060006101000a81548173ffffffffffffffffffffffffffffffffffffffff021916908373ffffffffffffffffffffffffffffffffffffffff160217905550843373ffffffffffffffffffffffffffffffffffffffff167f9a27b65b834a85153a0161940629613dcded325ecd78845ba99e2ec15d53b77b866040518080602001828103825283818151815260200191508051906020019080838360005b838110156109015780820151818401526020810190506108e6565b50505050905090810190601f16801561092e5780820380516001836020036101000a031916815260200191505b509250505060405180910390a35050505050565b60035481565b600260009054906101000a900473ffffffffffffffffffffffffffffffffffffffff168073ffffffffffffffffffffffffffffffffffffffff163373ffffffffffffffffffffffffffffffffffffffff16141515610a0e576040517f08c379a00000000000000000000000000000000000000000000000000000000081526004018080602001828103825260188152602001807f53656e646572206973206e6f7420617574686f72697a6564000000000000000081525060200191505060405180910390fd5b60068290806001815401808255809150509060018203906000526020600020016000909192909190916101000a81548173ffffffffffffffffffffffffffffffffffffffff021916908373ffffffffffffffffffffffffffffffffffffffff160217905550505050565b60046020528060005260406000206000915054906101000a900473ffffffffffffffffffffffffffffffffffffffff1681565b6004600083815260200190815260200160002060009054906101000a900473ffffffffffffffffffffffffffffffffffffffff168073ffffffffffffffffffffffffffffffffffffffff163373ffffffffffffffffffffffffffffffffffffffff16141515610b82576040517f08c379a00000000000000000000000000000000000000000000000000000000081526004018080602001828103825260188152602001807f53656e646572206973206e6f7420617574686f72697a6564000000000000000081525060200191505060405180910390fd5b836004600085815260200190815260200160002060006101000a81548173ffffffffffffffffffffffffffffffffffffffff021916908373ffffffffffffffffffffffffffffffffffffffff16021790555081600560008581526020019081526020016000209080519060200190610bfb929190610f3b565b50828473ffffffffffffffffffffffffffffffffffffffff163373ffffffffffffffffffffffffffffffffffffffff167fcd6e659e4c2e75c3bfe47fecaccf39aeb368116a0ee52afb532e07f6cba6c0d1856040518080602001828103825283818151815260200191508051906020019080838360005b83811015610c8d578082015181840152602081019050610c72565b50505050905090810190601f168015610cba5780820380516001836020036101000a031916815260200191505b509250505060405180910390a450505050565b60006004600083815260200190815260200160002060009054906101000a900473ffffffffffffffffffffffffffffffffffffffff169050919050565b600681815481101515610d1957fe5b906000526020600020016000915054906101000a900473ffffffffffffffffffffffffffffffffffffffff1681565b6060600560008381526020019081526020016000208054600181600116156101000203166002900480601f016020809104026020016040519081016040528092919081815260200182805460018160011615610100020316600290048015610df15780601f10610dc657610100808354040283529160200191610df1565b820191906000526020600020905b815481529060010190602001808311610dd457829003601f168201915b50505050509050919050565b60056020528060005260406000206000915090508054600181600116156101000203166002900480601f016020809104026020016040519081016040528092919081815260200182805460018160011615610100020316600290048015610ea55780601f10610e7a57610100808354040283529160200191610ea5565b820191906000526020600020905b815481529060010190602001808311610e8857829003601f168201915b505050505081565b60606006805480602002602001604051908101604052809291908181526020018280548015610f3157602002820191906000526020600020905b8160009054906101000a900473ffffffffffffffffffffffffffffffffffffffff1673ffffffffffffffffffffffffffffffffffffffff1681526020019060010190808311610ee7575b5050505050905090565b828054600181600116156101000203166002900490600052602060002090601f016020900481019282601f10610f7c57805160ff1916838001178555610faa565b82800160010185558215610faa579182015b82811115610fa9578251825591602001919060010190610f8e565b5b509050610fb79190610fbb565b5090565b610fdd91905b80821115610fd9576000816000905550600101610fc1565b5090565b9056fea165627a7a7230582024a901963637c0770d44fb1f71414574e83e206fd8e7f7764baa89c3cd33b3370029",
  "source": "pragma solidity >=0.4.20;\n\ncontract TrueGrailToken {\n\n    string private name;\n    string private symbol;\n    address private creator;\n    uint256 public totalSupply;\n    \n    // ERC20 compatible functions\n    // key: token id, value: address of the owner\n    mapping(uint256 => address) public ownerships;\n    // key: token id, value: group of adresses that are allowed to use the token \n\n    mapping (uint256 => string) public tokenHashInfo;\n    // mapping(address => uint256) balances;\n\n    address[] public factories;\n\n    function getCreator() public view returns (address) {\n        return creator;\n    }\n\n    // getter\n    function getFactories() public view returns (address[] memory) {\n        return factories;\n    }\n\n    // modifier\n\n    modifier onlyByUser(address _account) {\n      require(msg.sender == _account, \"Sender is not authorized\");\n      _;\n    }\n\n   modifier onlyByGroup(address[] storage _group) {\n       bool isAllowed = false;\n       for (uint i=0; i < _group.length; i++) {\n            if (msg.sender == _group[i]) {\n                isAllowed = true;\n            }\n       }\n       require(isAllowed, \"Sender is not allowed to do this transaction\");\n       _;\n   }\n   \n\n    constructor (string memory _name, string memory _symbol) public {\n        creator = msg.sender;\n        name = _name;\n        symbol = _symbol;\n    }\n\n    function addFactory(address _account) public onlyByUser(creator) {\n        factories.push(_account);\n    }\n\n    function issueToken(uint256 _tokenId, string memory _hashInfo, address _initAddress) public onlyByGroup(factories) {\n        tokenHashInfo[_tokenId] = _hashInfo;\n        ownerships[_tokenId] = _initAddress;\n\n        emit Issue(msg.sender, _tokenId, _hashInfo);\n    }\n\n    // function balanceOf(address _owner) public view returns (uint balance) {\n    //     return balances[_owner];\n    // }\n\n    // Functions that define ownership\n    function ownerOf(uint256 _tokenId) public view returns (address _owner) {\n        return ownerships[_tokenId];\n    }\n\n    // function approve(address _to, uint256 _tokenId) public onlyByUser(ownerships[_tokenId]) {\n    //     alloweds[_tokenId].push(_to);\n    // }\n\n    function transfer(address _to, uint256 _tokenId, string memory newHash) public onlyByUser(ownerships[_tokenId]) {\n        ownerships[_tokenId] = _to;\n        tokenHashInfo[_tokenId] = newHash;\n        emit Transfer(msg.sender, _to, _tokenId, newHash);\n    }\n\n    // function tokenOfOwnerByIndex(address _owner, uint256 _index) public view returns (uint tokenId);\n    // Token metadata\n    function tokenMetadata(uint256 _tokenId) public view returns (string memory infoHash) {\n        return tokenHashInfo[_tokenId];\n    }\n    // Events\n    event Transfer(address indexed _from, address indexed _to, uint256 indexed _tokenId, string newHash);\n    event Approval(address indexed _owner, address indexed _approved, uint256 _tokenId);\n    event Issue(address indexed _issuer, uint256 indexed _tokenId, string _hashInfo);\n}",
  "sourcePath": "/usr/src/truegrail-token/contracts/TrueGrailToken.sol",
  "compiler": {
    "name": "solc",
    "version": "0.5.0+commit.1d4f565a.Emscripten.clang"
  },
  "schemaVersion": "3.0.6",
  "updatedAt": "2019-09-16T17:05:07.335Z",
  "devdoc": {
    "methods": {}
  },
  "userdoc": {
    "methods": {}
  }
}